:100000005DC000001AC200003FC200007CC00000BA
:100010007AC0000078C0000076C00000A1C50000D2
:1000200072C0000070C000006EC000006CC0000014
:100030006AC00000FBC5000066C0000064C000008C
:100040004AC2000060C00000AAC40000DAC4000078
:100050005AC0000058C0000056C0000054C0000044
:1000600052C0000050C00000000000080002010063
:100070000003040700000000000000000102040863
:100080001020408001020408102001020408102002
:10009000040404040404040402020202020203032E
:1000A0000303030300000000250028002B000000CC
:1000B0000000240027002A000200260511241FBE8C
:1000C000CFEFD8E0DEBFCDBF11E0A0E0B1E0E2EEBF
:1000D000FFE002C005900D92A033B107D9F722E0EE
:1000E000A0E3B1E001C01D92A13DB207E1F710E02D
:1000F000CEE5D0E003C02197FE016BD7CD35D10707
:10010000D1F7F6D56CC77CCF0895CF93DF938823C2
:1001100031F0EB01815064D29983888303C0FB01E5
:1001200011821082DF91CF910895089508950F9361
:100130001F938B019C0183E03695279517950795B2
:100140008A95D1F7F801E05DFE4F2081422F50E003
:10015000E62FE77021E030E002C0220F331FEA955E
:10016000E2F724233523232B19F0CB01019602C09B
:1001700080E090E01F910F9108950F931F938B01E2
:100180009C0183E036952795179507958A95D1F7B9
:10019000677081E090E001C0880F6A95EAF7F80186
:1001A000E05DFE4F452B21F480959081892302C0AC
:1001B0009081892B80831F910F910895CF92DF92B8
:1001C000EF92FF92CF93DF936B017C0160E08EE0B2
:1001D000C816D104E104F10418F48EE08C0D01C0BE
:1001E0008C2D44D2E6012196AE01C701B601C5DFD0
:1001F000CE01DF91CF91FF90EF90DF90CF900895E7
:10020000CF92DF92EF92FF920F931F93CF93DF93E2
:1002100000D0CDB7DEB7C0900001D0900101E090D2
:100220000201F0900301A70196016091880270918C
:10023000890280918A0290918B0290D5882341F0A7
:10024000C0928802D0928902E0928A02F0928B02D8
:1002500080918E0290918F0268DF6091900270E031
:1002600080E090E064DF90938F0280938E0243E001
:1002700050E0BE016F5F7F4F48DF00917802109120
:10028000790280916A0290916B02A0916C02B09108
:100290006D02BC01CD016F5F7F4F8F4F9F4F609309
:1002A0006A0270936B0280936C0290936D025AD530
:1002B0009B01AC0160916E0270916F02809170029F
:1002C0009091710201D6F8016083718382839383D8
:1002D0008091720290917302A0917402B0917502A4
:1002E0000196A11DB11D8093720290937302A09399
:1002F0007402B09375020F900F90DF91CF911F9110
:100300000F91FF90EF90DF90CF9008950F931F9380
:10031000CF93DF93EBEEF1E086E792E09583848361
:10032000C8E7D2E0D7AFC6AF0EE612E0138B028B60
:10033000F0935402E0935302F383E28321E030E030
:10034000DC012D933C938AE091E0918780878AE7D6
:1003500092E0998388834AE057ED63EA7CE3F801F1
:100360004083518362837383C2E8D2E0188222E320
:100370002F8793E3988B84E3898B85E38A8B86E3CD
:100380008B8B87E38C8B88E38D8B89E38E8B81E36A
:100390008F8B30E3388F898F8A8F8B8F2C8F8D8F47
:1003A0009E8F81E992E09B878A8711E01E8780916A
:1003B000000190910101A0910201B09103018E838F
:1003C0009F83A887B9871D8281E090E0A0E0B0E01C
:1003D00089839A83AB83BC8361E070E080E090E026
:1003E000EDDE9D878C8720E030E0A90160E070E0C1
:1003F0008BDE1D83DF91CF911F910F910895809126
:100400008202811118C081E0809382028091830270
:1004100090918402A0918502B09186020197A10576
:10042000B10549F480918702882329F080918E02DA
:1004300090918F027BCE089508951F920F920FB670
:100440000F9211242F933F934F935F936F937F935A
:100450008F939F93AF93BF93EF93FF93E09104012A
:10046000F09105010995FF91EF91BF91AF919F9197
:100470008F917F916F915F914F913F912F910F904D
:100480000FBE0F901F9018951F920F920FB60F92EC
:1004900011242F933F934F935F936F937F938F9389
:1004A0009F93AF93BF93EF93FF93E0910601F09179
:1004B00007010995FF91EF91BF91AF919F918F91A6
:1004C0007F916F915F914F913F912F910F900FBE50
:1004D0000F901F9018951F920F920FB60F92112434
:1004E0002F933F938F939F93AF93BF9380913A0144
:1004F00090913B01A0913C01B0913D0130913901B7
:1005000023E0230F2D3720F40196A11DB11D05C056
:1005100026E8230F0296A11DB11D20933901809377
:100520003A0190933B01A0933C01B0933D0180912F
:100530003E0190913F01A0914001B091410101968F
:10054000A11DB11D80933E0190933F01A0934001F6
:10055000B0934101BF91AF919F918F913F912F91A6
:100560000F900FBE0F901F901895789484B58260FD
:1005700084BD84B5816084BD85B5826085BD85B547
:10058000816085BDEEE6F0E0808181608083E1E8F6
:10059000F0E010828081826080838081816080832E
:1005A000E0E8F0E0808181608083E1EBF0E0808131
:1005B00084608083E0EBF0E0808181608083EAE703
:1005C000F0E080818460808380818260808380818C
:1005D000816080838081806880831092C10008954B
:1005E0008E3008F08E502091080190E4299F9001F0
:1005F00011248770822B80937C0080917A00806424
:1006000080937A0080917A0086FDFCCF80917800FB
:100610002091790090E0922B0895833081F028F4A6
:10062000813099F08230A1F008958730A9F08830A8
:10063000B9F08430D1F4809180008F7D03C0809127
:1006400080008F7780938000089584B58F7702C0F3
:1006500084B58F7D84BD08958091B0008F7703C0ED
:100660008091B0008F7D8093B0000895CF93DF9389
:1006700090E0FC01E458FF4F2491FC01E057FF4F4C
:100680008491882361F190E0880F991FFC01E25565
:10069000FF4FC591D491FC01EC55FF4FA591B4914A
:1006A000611109C09FB7F8948881209582238883BF
:1006B000EC912E230BC0623061F49FB7F8948881CF
:1006C000322F309583238883EC912E2B2C939FBF60
:1006D00006C08FB7F894E8812E2B28838FBFDF9157
:1006E000CF9108951F93CF93DF93282F30E0F90126
:1006F000E859FF4F8491F901E458FF4FD491F90173
:10070000E057FF4FC491CC23B9F0162F811185DF3C
:10071000EC2FF0E0EE0FFF1FEC55FF4FA591B491C9
:100720009FB7F894111104C08C91D095D82302C0C2
:10073000EC91DE2BDC939FBFDF91CF911F91089549
:10074000FC01918D228D892F90E0805C9F4F821B50
:1007500091098F7399270895FC01918D828D9817C7
:1007600031F0828DE80FF11D858D90E008958FEFB7
:100770009FEF0895FC01918D828D981761F0828D15
:10078000DF01A80FB11D5D968C91928D9F5F9F73C5
:10079000928F90E008958FEF9FEF0895FC01538DA5
:1007A000448D252F30E0842F90E0821B930B54174B
:1007B00010F0CF96089501970895FC01848DDF0114
:1007C000A80FB11DA35ABF4F2C91848D90E00196C4
:1007D0008F739927848FA689B7892C93A089B189B3
:1007E0008C91837080648C93938D848D981306C054
:1007F0000288F389E02D80818F7D80830895EF92B8
:10080000FF920F931F93CF93DF93EC0181E0888FCA
:100810009B8D8C8D981305C0E889F989808185FDB1
:1008200025C0F62E0B8D10E00F5F1F4F0F731127A1
:10083000E02E8C8DE8120BC00FB607FCFACFE889CA
:10084000F989808185FFF5CFCE01B7DFF2CF8B8D9F
:10085000FE01E80FF11DE35AFF4FF0829FB7F894B5
:100860000B8FEA89FB89808180620AC09FB7F89468
:10087000EE89FF896083E889F989808183708064CB
:1008800080839FBF81E090E0DF91CF911F910F9116
:10089000FF90EF900895CF93DF93EC01888D88232C
:1008A000C1F0EA89FB89808185FD05C0A889B989E5
:1008B0008C9186FD0EC00FB607FCF5CF808185FFB9
:1008C000F2CFA889B9898C9185FFEDCFCE0175DF74
:1008D000E8CFDF91CF910895CF92DF92EF92FF9210
:1008E0001F93CF93DF93EC016A017B01122FE889FC
:1008F000F98982E080834115514E61057105A9F0A7
:1009000060E079E08DE390E0A701960140D3DA0141
:10091000C9010197A109B109B695A7959795879542
:100920009C01211580E13807A0F0E889F98910823F
:1009300060E874E88EE190E0A701960128D3DA011F
:10094000C9010197A109B109B695A7959795879512
:100950009C01EC85FD853083EE85FF852083188E14
:10096000EC89FD891083EA89FB898081806180831D
:10097000EA89FB89808188608083EA89FB8980819C
:1009800080688083EA89FB8980818F7D8083DF9105
:10099000CF911F91FF90EF90DF90CF9008951F921D
:1009A0000F920FB60F9211242F938F939F93EF9373
:1009B000FF93E0915201F09153018081E091580141
:1009C000F091590182FD12C0908180915B018F5F8F
:1009D0008F7320915C01821751F0E0915B01F0E090
:1009E000EE5BFE4F958F80935B0101C08081FF918C
:1009F000EF919F918F912F910F900FBE0F901F90AD
:100A000018951F920F920FB60F9211242F933F93B8
:100A10004F935F936F937F938F939F93AF93BF9306
:100A2000EF93FF9382E491E0C8DEFF91EF91BF91D5
:100A3000AF919F918F917F916F915F914F913F9176
:100A40002F910F900FBE0F901F901895E2E4F1E0E8
:100A50001382128288EE93E0A0E0B0E08483958355
:100A6000A683B78382E291E09183808385EC90E056
:100A70009587848784EC90E09787868780EC90E068
:100A8000918B808B81EC90E0938B828B82EC90E059
:100A9000958B848B86EC90E0978B868B118E128ED3
:100AA000138E148E0895CF92DF92EF92FF920F93E0
:100AB0001F93CF93DF936C017A018B01C0E0D0E0EC
:100AC000CE15DF0581F0D8016D918D01D601ED9134
:100AD000FC910190F081E02DC6010995892B11F060
:100AE0002196EECF7E01C701DF91CF911F910F912B
:100AF000FF90EF90DF90CF900895813039F018F09B
:100B0000823051F0089510926E00089580916F0028
:100B10008D7F80936F000895809170008D7F80930A
:100B2000700081E08093B0008091B100887F846084
:100B30008093B1001092B3000895CF93C82F809195
:100B40000901C81307C0E8EBF0E084919FEF909390
:100B5000090101C08FEFD1DF60E08C2FCF91C2CDB2
:100B60001F920F920FB60F9211242F933F934F9322
:100B70005F936F937F938F939F93AF93BF93EF9305
:100B8000FF938091E2019091E301A091E401B09183
:100B9000E501892B8A2B8B2B51F19091DF01E0919C
:100BA000E001F091E1018081892780838091E20159
:100BB0009091E301A091E401B091E50118161906A6
:100BC0001A061B06BCF48091E2019091E301A0910A
:100BD000E401B091E5010197A109B1098093E20117
:100BE0009093E301A093E401B093E50103C08091E9
:100BF0000901A3DFFF91EF91BF91AF919F918F9179
:100C00007F916F915F914F913F912F910F900FBE08
:100C10000F901F90189540E855E260E070E080E08A
:100C200090E000C026E082E491E056CE1F920F9241
:100C30000FB60F9211242F933F934F935F936F93AF
:100C40007F938F939F93AF93BF93EF93FF938EE127
:100C50009BEF909385008093840032D0FF91EF91B9
:100C6000BF91AF919F918F917F916F915F914F91C4
:100C70003F912F910F900FBE0F901F9018958EE10E
:100C80009BEF9093850080938400AFE6B0E08C9159
:100C90008E7F8C93E0E8F0E080818C7F8083E1E8B8
:100CA000F0E08081877E8083808184608083808182
:100CB0008C7F80838C9181608C93089581E008956E
:100CC0008091E80191E0980F9093E801882339F032
:100CD00021E030E03093EA012093E90106C07894E6
:100CE0008FDAF8948091E80181508093E8010895AB
:100CF000CF93DF931092E7011092E60136DC8BDF91
:100D0000C0911C01D0911D0119821882FFDAB7DF52
:100D100081E028813981232B09F080E08093E6016E
:100D2000789478948091E601882389F081E0288185
:100D30003981232B09F480E08093E7019091E7014A
:100D400081E0911180E08093E601B8DFEBCF57DBC3
:100D5000F89480E090E0DF91CF91089540D008F4BE
:100D600081E00895E89409C097FB3EF49095809542
:100D7000709561957F4F8F4F9F4F9923A9F0F92F61
:100D800096E9BB279395F695879577956795B795DF
:100D9000F111F8CFFAF4BB0F11F460FF1BC06F5FC5
:100DA0007F4F8F4F9F4F16C0882311F096E911C0D7
:100DB000772321F09EE8872F762F05C0662371F0F8
:100DC00096E8862F70E060E02AF09A95660F771F0C
:100DD000881FDAF7880F9695879597F90895990FE8
:100DE0000008550FAA0BE0E8FEEF16161706E807F5
:100DF000F907C0F012161306E407F50798F0621B16
:100E0000730B840B950B39F40A2661F0232B242BEA
:100E1000252B21F408950A2609F4A140A6958FEF09
:100E2000811D811D089597F99F6780E870E060E05B
:100E300008959FEF80EC089500240A941616170673
:100E400018060906089500240A94121613061406BB
:100E500005060895092E0394000C11F4882352F01E
:100E6000BB0F40F4BF2B11F460FF04C06F5F7F4FD6
:100E70008F4F9F4F089557FD9058440F551F59F0BD
:100E80005F3F71F04795880F97FB991F61F09F3F77
:100E900079F087950895121613061406551FF2CFA0
:100EA0004695F1DF08C0161617061806991FF1CFF0
:100EB00086957105610508940895E894BB27662717
:100EC0007727CB0197F908950BD0C4CFB5DF28F071
:100ED000BADF18F0952309F0A6CFABCF1124EECFDF
:100EE000CADFA0F3959FD1F3950F50E0551F629F85
:100EF000F001729FBB27F00DB11D639FAA27F00D73
:100F0000B11DAA1F649F6627B00DA11D661F829F99
:100F10002227B00DA11D621F739FB00DA11D621F7E
:100F2000839FA00D611D221F749F3327A00D611D9B
:100F3000231F849F600D211D822F762F6A2F11247D
:100F40009F5750408AF0E1F088234AF0EE0FFF1FD0
:100F5000BB1F661F771F881F91505040A9F79E3F07
:100F6000510570F060CFAACF5F3FECF3983EDCF301
:100F7000869577956795B795F795E7959F5FC1F744
:100F8000FE2B880F911D9695879597F90895A1E2FC
:100F90001A2EAA1BBB1BFD010DC0AA1FBB1FEE1FF3
:100FA000FF1FA217B307E407F50720F0A21BB30B3E
:100FB000E40BF50B661F771F881F991F1A9469F7BA
:100FC00060957095809590959B01AC01BD01CF0116
:100FD0000895EE0FFF1F0590F491E02D0994F89409
:020FE000FFCF41
:100FE200000080BF1C021C0201FF46697865645341
:100FF200746570446973637265746500EB01000087
:101002000000FF035305CE034B04A003BA03AC0355
:00000001FF
